TESTER PRIVATE KEY: d34781e8008e6a57946b43d97cb09ac066144f4d3c5f5de1567fa7269434a831
TESTER PUBLIC KEY: 0441ffbbe8f6fd93da9fad0114e96861801e87e1f5c53f617467a16a329c74f818226a24dbb1241422ab7faa764175fa710a57d5d52b33958efd37447e5826ea33

TESTER VP TOKEN ONBOARD: "eyJhbGciOiJFUzI1NksiLCJ0eXAiOiJKV1QifQ.eyJpc3MiOiJkaWQ6ZWJzaTo0MzI0ZjI0NDMyNDMyNCIsImF1ZCI6ImRpZDplYnNpOnpFOTcxb1Q5ZXN1S2RjSHNwS2RmQVhnIiwic3ViIjoiZGlkOmVic2k6NDMyNGYyNDQzMjQzMjQiLCJpYXQiOjE3NzQ2NTU2MDAsIm5iZiI6MTc3NDY1NTYwMCwiZXhwIjoyMDkwMDE1NjAwLCJub25jZSI6InVybjp1dWlkOjcwYzc4YjA3LTRjNDMtNDY4NC05M2NiLTQ3OTdjYTE2MmY1MyIsImp0aSI6InVybjp1dWlkOjcwYzc4YjA3LTRjNDMtNDY4NC05M2NiLTQ3OTdjYTE2MmY1MyIsInZwIjp7ImNvbnRleHQiOlsiaHR0cHM6Ly93d3cudzMub3JnLzIwMTgvY3JlZGVudGlhbHMvdjEiXSwiaWQiOiJ1cm46dXVpZDo3MGM3OGIwNy00YzQzLTQ2ODQtOTNjYi00Nzk3Y2ExNjJmNTMiLCJ0eXBlIjpbIlZlcmlmaWFibGVQcmVzZW50YXRpb24iXSwiaG9sZGVyIjoiZGlkOmVic2k6NDMyNGYyNDQzMjQzMjQiLCJ2ZXJpZmlhYmxlQ3JlZGVudGlhbCI6WyJleUpoYkdjaU9pSkZVekkxTmlJc0ltdHBaQ0k2SW1ScFpEcGxZbk5wT25wRk9UY3hiMVE1WlhOMVMyUmpTSE53UzJSbVFWaG5JM0JxZVdsVWVGQllRVXh0YlVnMEwxcENlR2R2VlZOcFluQjZla3REYm5STldHeDZlVkJIV1hwMWNFa2lMQ0owZVhBaU9pSktWMVFpZlEuZXlKcGMzTWlPaUprYVdRNlpXSnphVHA2UlRrM01XOVVPV1Z6ZFV0a1kwaHpjRXRrWmtGWVp5SXNJbk4xWWlJNkltUnBaRHBsWW5OcE9qUXpNalJtTWpRME16STBNekkwSWl3aWFXRjBJam94TnpjME5qVTFOVGc0TENKdVltWWlPakUzTnpRMk5UVTFPRGdzSW1WNGNDSTZNakE1TURBeE5UVTRPQ3dpYW5ScElqb2lkWEp1T25WMWFXUTZNbUprT1RobE0yRXRNbVF5TUMwMFltTmhMVGhtWVdJdE5ESXdNelEwWTJFMU1XWTRJaXdpZG1NaU9uc2lZMjl1ZEdWNGRDSTZXeUpvZEhSd2N6b3ZMM2QzZHk1M015NXZjbWN2TWpBeE9DOWpjbVZrWlc1MGFXRnNjeTkyTVNKZExDSnBaQ0k2SW5WeWJqcDFkV2xrT2pKaVpEazRaVE5oTFRKa01qQXROR0pqWVMwNFptRmlMVFF5TURNME5HTmhOVEZtT0NJc0luUjVjR1VpT2xzaVZtVnlhV1pwWVdKc1pVRjFkR2h2Y21sellYUnBiMjVVYjA5dVltOWhjbVFpWFN3aWFYTnpkV0Z1WTJWRVlYUmxJam9pTWpBeU5pMHdNeTB5T0ZRd01EbzFNem93T0M0MU16VTRNallpTENKMllXeHBaRVp5YjIwaU9pSXlNREkyTFRBekxUSTRWREF3T2pVek9qQTRMalV6TlRneU5pSXNJblpoYkdsa1ZXNTBhV3dpT2lJeU1ETTJMVEF6TFRJMVZEQXdPalV6T2pBNExqVXpOVGd6TlNJc0ltVjRjR2x5WVhScGIyNUVZWFJsSWpvaU1qQXpOaTB3TXkweU5WUXdNRG8xTXpvd09DNDFNelU0TXpVaUxDSnBjM04xWldRaU9pSXlNREkyTFRBekxUSTRWREF3T2pVek9qQTRMalV6TlRneU5pSXNJbU55WldSbGJuUnBZV3hUZFdKcVpXTjBJanA3SW1sa0lqb2laR2xrT21WaWMyazZORE15TkdZeU5EUXpNalF6TWpRaWZTd2lZM0psWkdWdWRHbGhiRk5qYUdWdFlTSTZleUpwWkNJNkltaDBkSEJ6T2k4dllYQnBMWEJwYkc5MExtVmljMmt1WlhVdmRISjFjM1JsWkMxelkyaGxiV0Z6TFhKbFoybHpkSEo1TDNZeUwzTmphR1Z0WVhNdk1IZ3lNekF6T1dVMk16VTJaV0UyWWpjd00yTmxOamN5WlRkalptRmpNR0kwTWpjMk5XSXhOVEJtTmpOa1pqYzRaVEppWkRFNFlXVTNPRFUzT0RkbU5tRXlJaXdpZEhsd1pTSTZJa1oxYkd4S2MyOXVVMk5vWlcxaFZtRnNhV1JoZEc5eU1qQXlNU0o5ZlgwLkZTVlNybENKcHU1Q0pLLWF1QVdXQklJU0FtcWpvN2tYTURWbFFjc09FMU16LVpnVDFuc2NDZDY5RE1udXpXVWVrclB6a1o3MWFmazJSd1NzdDlhYzVRIl19fQ.SY-W1vEoK1nVOwqhbOyrsxMyjEGRktNDYM2DJwgAJ1TnD6rM5B7i6rfnhSFFjRi98YP30oz-BGFNJKjKKaC1Pg"

TESTER ACCESS & ID TOKEN:

{
  "access_token": "eyJhbGciOiJFUzI1NiIsImtpZCI6IlJWVzJva3h6LXp6TnpBRUZLTl9lSWtRaXQ2WERDaUp0N2szaW5WaDlSV1EiLCJ0eXAiOiJKV1QifQ.eyJhdWQiOiJodHRwczovL2FwaS1waWxvdC5lYnNpLmV1L2F1dGhvcmlzYXRpb24vdjQiLCJleHAiOjE3NzQ2NTkyMTcsImlhdCI6MTc3NDY1MjAxNywiaXNzIjoiaHR0cHM6Ly9hcGktcGlsb3QuZWJzaS5ldS9hdXRob3Jpc2F0aW9uL3Y0IiwianRpIjoiN2JmMTI0OGQtMDgwNS00ZTE4LWI0YzgtMjgwYmY5YWM4NWJhIiwic2NwIjoib3BlbmlkIGRpZHJfaW52aXRlIiwic3ViIjoiZGlkOmVic2k6NDMyNGYyNDQzMjQzMjQifQ.7P4R5Kt0lk-rT3BK2f6WMdzRT9x5-tOjJfucoxZCsgvvA9QMfq5sYqLRoBAgyq7AA2Kak0HnJQWhuUz99YNe0g",
  "token_type": "Bearer",
  "expires_in": 7200,
  "scope": "openid didr_invite",
  "id_token": "eyJhbGciOiJFUzI1NiIsImtpZCI6IlJWVzJva3h6LXp6TnpBRUZLTl9lSWtRaXQ2WERDaUp0N2szaW5WaDlSV1EiLCJ0eXAiOiJKV1QifQ.eyJhdWQiOiJkaWQ6ZWJzaTp6RTk3MW9UOWVzdUtkY0hzcEtkZkFYZyIsImV4cCI6MTc3NDY1OTIxNywiaWF0IjoxNzc0NjUyMDE3LCJpc3MiOiJodHRwczovL2FwaS1waWxvdC5lYnNpLmV1L2F1dGhvcmlzYXRpb24vdjQiLCJqdGkiOiI5YTY1NTBkZi03M2JlLTQ2NjMtOGEzZi02MzMxYTJiMjg3OTEiLCJub25jZSI6MCwic3ViIjoiZGlkOmVic2k6NDMyNGYyNDQzMjQzMjQifQ.mf2emSGlqv8QafY1VMm0Xp1ianSI5E8NKArpdktFgv5Tjvbzew5VF0JcAkhkTt66kjmE1UuwHVVpbnAWoiIZUg"
}

ETH PRIVATE KEY: 0x0a30a737e618bd00bfc0113f2a26bbf14c0b9dc5697de8e9ef65e9b7310ae8f7
ETH ADDRESS: 0xaB6415d6A931A84Dfc02FFD551C4876048c39A92

TESET DID: did:ebsi:z95paQoBwGAqnnu4RKTmCtT

TESTER INSERT-DID-DOCUMENT:
{
  "jsonrpc": "2.0",
  "method": "insertDidDocument",
  "params": [
    {
      "from": "0xaB6415d6A931A84Dfc02FFD551C4876048c39A92",
      "did": "did:ebsi:z95paQoBwGAqnnu4RKTmCtT",
      "baseDocument": "{\"@context\":[\"https://www.w3.org/ns/did/v1\",\"https://w3id.org/security/suites/jws-2020/v1\"]}",
      "vMethodId": "axZAOKbj-YyMiIN2CRLCwPjSCgMwhBwCVNgEbOl3QJY",
      "publicKey": "0x0441ffbbe8f6fd93da9fad0114e96861801e87e1f5c53f617467a16a329c74f818226a24dbb1241422ab7faa764175fa710a57d5d52b33958efd37447e5826ea33",
      "isSecp256k1": true,
      "notBefore": 1774707573,
      "notAfter": 2090326773
    }
  ]
  "id": 474
}

TESTER TRANSACTION:

{
  "jsonrpc": "2.0",
  "id": 474,
  "result": {
    "value": 0,
    "from": "0xaB6415d6A931A84Dfc02FFD551C4876048c39A92",
    "to": "0x823BBc0ceE3dE3B61AcfA0CEedb951AB9a013F05",
    "nonce": 45523,
    "chainId": 1234,
    "gas": 0,
    "gasPrice": 0,
    "data": "0xfbb2240800000000000000000000000000000000000000000000000000000000000000e0000000000000000000000000000000000000000000000000000000000000012000000000000000000000000000000000000000000000000000000000000001a0000000000000000000000000000000000000000000000000000000000000020000000000000000000000000000000000000000000000000000000000000000010000000000000000000000000000000000000000000000000000000069c7e375000000000000000000000000000000000000000000000000000000007c97daf500000000000000000000000000000000000000000000000000000000000000176469643a656273693a3433323466323434333234333234000000000000000000000000000000000000000000000000000000000000000000000000000000005c7b2240636f6e74657874223a5b2268747470733a2f2f7777772e77332e6f72672f6e732f6469642f7631222c2268747470733a2f2f773369642e6f72672f73656375726974792f7375697465732f6a77732d323032302f7631225d7d00000000000000000000000000000000000000000000000000000000000000000000002b61785a414f4b626a2d59794d69494e3243524c4377506a5343674d7768427743564e6745624f6c33514a5900000000000000000000000000000000000000000000000000000000000000000000000000000000000000000000000000000000410441ffbbe8f6fd93da9fad0114e96861801e87e1f5c53f617467a16a329c74f818226a24dbb1241422ab7faa764175fa710a57d5d52b33958efd37447e5826ea3300000000000000000000000000000000000000000000000000000000000000"
  }
}


TESTER SIGNED TRANSACTION:

{
  "jsonrpc": "2.0",
  "method": "sendSignedTransaction",
  "id": 1,
  "params": [
    {
      "protocol": "eth",
      "unsignedTransaction": {
        "value": 0,
        "from": "0xaB6415d6A931A84Dfc02FFD551C4876048c39A92",
        "to": "0x823BBc0ceE3dE3B61AcfA0CEedb951AB9a013F05",
        "nonce": 45523,
        "chainId": 1234,
        "gas": 0,
        "gasPrice": 0,
        "data": "0xfbb2240800000000000000000000000000000000000000000000000000000000000000e0000000000000000000000000000000000000000000000000000000000000012000000000000000000000000000000000000000000000000000000000000001a0000000000000000000000000000000000000000000000000000000000000020000000000000000000000000000000000000000000000000000000000000000010000000000000000000000000000000000000000000000000000000069c7e375000000000000000000000000000000000000000000000000000000007c97daf500000000000000000000000000000000000000000000000000000000000000176469643a656273693a3433323466323434333234333234000000000000000000000000000000000000000000000000000000000000000000000000000000005c7b2240636f6e74657874223a5b2268747470733a2f2f7777772e77332e6f72672f6e732f6469642f7631222c2268747470733a2f2f773369642e6f72672f73656375726974792f7375697465732f6a77732d323032302f7631225d7d00000000000000000000000000000000000000000000000000000000000000000000002b61785a414f4b626a2d59794d69494e3243524c4377506a5343674d7768427743564e6745624f6c33514a5900000000000000000000000000000000000000000000000000000000000000000000000000000000000000000000000000000000410441ffbbe8f6fd93da9fad0114e96861801e87e1f5c53f617467a16a329c74f818226a24dbb1241422ab7faa764175fa710a57d5d52b33958efd37447e5826ea3300000000000000000000000000000000000000000000000000000000000000"
      },
      "r": "0x83d0c446c14b9adbb853aa21133fd318d5006abd048926a2b7f4e8baafd34d81",
      "s": "0x6fe0e00d066a7f4dfa9881fee8b378b99d21eed0ea1fa6e4ae95687a0475bb66",
      "v": 2503,
      "signedRawTransaction": "f902e782b1d3808094823bbc0cee3de3b61acfa0ceedb951ab9a013f0580b90284fbb2240800000000000000000000000000000000000000000000000000000000000000e0000000000000000000000000000000000000000000000000000000000000012000000000000000000000000000000000000000000000000000000000000001a0000000000000000000000000000000000000000000000000000000000000020000000000000000000000000000000000000000000000000000000000000000010000000000000000000000000000000000000000000000000000000069c7e375000000000000000000000000000000000000000000000000000000007c97daf500000000000000000000000000000000000000000000000000000000000000176469643a656273693a3433323466323434333234333234000000000000000000000000000000000000000000000000000000000000000000000000000000005c7b2240636f6e74657874223a5b2268747470733a2f2f7777772e77332e6f72672f6e732f6469642f7631222c2268747470733a2f2f773369642e6f72672f73656375726974792f7375697465732f6a77732d323032302f7631225d7d00000000000000000000000000000000000000000000000000000000000000000000002b61785a414f4b626a2d59794d69494e3243524c4377506a5343674d7768427743564e6745624f6c33514a5900000000000000000000000000000000000000000000000000000000000000000000000000000000000000000000000000000000410441ffbbe8f6fd93da9fad0114e96861801e87e1f5c53f617467a16a329c74f818226a24dbb1241422ab7faa764175fa710a57d5d52b33958efd37447e5826ea33000000000000000000000000000000000000000000000000000000000000008209c7a083d0c446c14b9adbb853aa21133fd318d5006abd048926a2b7f4e8baafd34d81a06fe0e00d066a7f4dfa9881fee8b378b99d21eed0ea1fa6e4ae95687a0475bb66"
    }
  ]
}


TESTER VP TOKEN AFTER DID CREATION: eyJhbGciOiJFUzI1NksiLCJraWQiOiJkaWQ6ZWJzaTo0MzI0ZjI0NDMyNDMyNCNheFpBT0tiai1ZeU1pSU4yQ1JMQ3dQalNDZ013aEJ3Q1ZOZ0ViT2wzUUpZIiwidHlwIjoiSldUIn0.eyJpc3MiOiJkaWQ6ZWJzaTo0MzI0ZjI0NDMyNDMyNCIsImF1ZCI6ImRpZDplYnNpOnpFOTcxb1Q5ZXN1S2RjSHNwS2RmQVhnIiwic3ViIjoiZGlkOmVic2k6NDMyNGYyNDQzMjQzMjQiLCJpYXQiOjE3NzQ3MjA4MzUsIm5iZiI6MTc3NDcyMDgzNSwiZXhwIjoyMDkwMDgwODM1LCJub25jZSI6InVybjp1dWlkOjI0YmViMzZkLTg5Y2EtNGQ2Ny1iNmIwLTQ5Yjg2MWMwNjI2MSIsImp0aSI6InVybjp1dWlkOjI0YmViMzZkLTg5Y2EtNGQ2Ny1iNmIwLTQ5Yjg2MWMwNjI2MSIsInZwIjp7ImNvbnRleHQiOlsiaHR0cHM6Ly93d3cudzMub3JnLzIwMTgvY3JlZGVudGlhbHMvdjEiXSwiaWQiOiJ1cm46dXVpZDoyNGJlYjM2ZC04OWNhLTRkNjctYjZiMC00OWI4NjFjMDYyNjEiLCJ0eXBlIjpbIlZlcmlmaWFibGVQcmVzZW50YXRpb24iXSwiaG9sZGVyIjoiZGlkOmVic2k6NDMyNGYyNDQzMjQzMjQiLCJ2ZXJpZmlhYmxlQ3JlZGVudGlhbCI6WyJleUpoYkdjaU9pSkZVekkxTmlJc0ltdHBaQ0k2SW1ScFpEcGxZbk5wT25wRk9UY3hiMVE1WlhOMVMyUmpTSE53UzJSbVFWaG5JM0JxZVdsVWVGQllRVXh0YlVnMEwxcENlR2R2VlZOcFluQjZla3REYm5STldHeDZlVkJIV1hwMWNFa2lMQ0owZVhBaU9pSktWMVFpZlEuZXlKcGMzTWlPaUprYVdRNlpXSnphVHA2UlRrM01XOVVPV1Z6ZFV0a1kwaHpjRXRrWmtGWVp5SXNJbk4xWWlJNkltUnBaRHBsWW5OcE9qUXpNalJtTWpRME16STBNekkwSWl3aWFXRjBJam94TnpjME56SXdOemsyTENKdVltWWlPakUzTnpRM01qQTNPVFlzSW1WNGNDSTZNakE1TURBNE1EYzVOaXdpYW5ScElqb2lkWEp1T25WMWFXUTZNbVV3WXpkaFpXSXRNalV5TVMwME1qZzRMVGhqTW1RdE16ZG1OVFZrWWpJMVpHRmlJaXdpZG1NaU9uc2lZMjl1ZEdWNGRDSTZXeUpvZEhSd2N6b3ZMM2QzZHk1M015NXZjbWN2TWpBeE9DOWpjbVZrWlc1MGFXRnNjeTkyTVNKZExDSnBaQ0k2SW5WeWJqcDFkV2xrT2pKbE1HTTNZV1ZpTFRJMU1qRXROREk0T0MwNFl6SmtMVE0zWmpVMVpHSXlOV1JoWWlJc0luUjVjR1VpT2x0ZExDSnBjM04xWVc1alpVUmhkR1VpT2lJeU1ESTJMVEF6TFRJNFZERTRPalU1T2pVMkxqY3dPVEF3TWlJc0luWmhiR2xrUm5KdmJTSTZJakl3TWpZdE1ETXRNamhVTVRnNk5UazZOVFl1TnpBNU1EQXlJaXdpZG1Gc2FXUlZiblJwYkNJNklqSXdNell0TURNdE1qVlVNVGc2TlRrNk5UWXVOekE1TURFeElpd2laWGh3YVhKaGRHbHZia1JoZEdVaU9pSXlNRE0yTFRBekxUSTFWREU0T2pVNU9qVTJMamN3T1RBeE1TSXNJbWx6YzNWbFpDSTZJakl3TWpZdE1ETXRNamhVTVRnNk5UazZOVFl1TnpBNU1EQXlJaXdpWTNKbFpHVnVkR2xoYkZOMVltcGxZM1FpT25zaWFXUWlPaUprYVdRNlpXSnphVG8wTXpJMFpqSTBORE15TkRNeU5DSjlMQ0pqY21Wa1pXNTBhV0ZzVTJOb1pXMWhJanA3SW1sa0lqb2lhSFIwY0hNNkx5OWhjR2t0Y0dsc2IzUXVaV0p6YVM1bGRTOTBjblZ6ZEdWa0xYTmphR1Z0WVhNdGNtVm5hWE4wY25rdmRqSXZjMk5vWlcxaGN5OHdlREl6TURNNVpUWXpOVFpsWVRaaU56QXpZMlUyTnpKbE4yTm1ZV013WWpReU56WTFZakUxTUdZMk0yUm1OemhsTW1Ka01UaGhaVGM0TlRjNE4yWTJZVElpTENKMGVYQmxJam9pUm5Wc2JFcHpiMjVUWTJobGJXRldZV3hwWkdGMGIzSXlNREl4SW4xOWZRLkw2dUpSUXFFWGVia1NjX1ZUWmR1UmxZVHJhYU9HaUtIRmI2S3FCNVlyZUJEMXRWMkhiRmNudTJBUkNqUzZwVGpINWlOV0U0SlJLSmRmaExiSDFFaEV3Il19fQ.hG5ONDL7o4YKRh2g9UTVIm1jgpuHHK5gxFkNtyEwcojSBKGVH_Zu-Kr-BJAScHsZQBJiVtkqxLAuTbYCqtRPRA
TESTER ACCESS TOKEN AFTER DID CREATION: eyJhbGciOiJFUzI1NiIsImtpZCI6IlJWVzJva3h6LXp6TnpBRUZLTl9lSWtRaXQ2WERDaUp0N2szaW5WaDlSV1EiLCJ0eXAiOiJKV1QifQ.eyJhdWQiOiJodHRwczovL2FwaS1waWxvdC5lYnNpLmV1L2F1dGhvcmlzYXRpb24vdjQiLCJleHAiOjE3NzQ3MjUyMTgsImlhdCI6MTc3NDcxODAxOCwiaXNzIjoiaHR0cHM6Ly9hcGktcGlsb3QuZWJzaS5ldS9hdXRob3Jpc2F0aW9uL3Y0IiwianRpIjoiOThjYTQxODgtMTg1My00MDM5LWIzMTgtNTk0YzlkNTdkMDdlIiwic2NwIjoib3BlbmlkIGRpZHJfd3JpdGUiLCJzdWIiOiJkaWQ6ZWJzaTo0MzI0ZjI0NDMyNDMyNCJ9.PiajyjDI1ES7-4CZtols_DNPEqijafJ3lGEa-Yp4YBXjCGfYKdEpDdcP9TD8Zu3d5FxRPQvq4JBgmepWJPhKeA

TESTER VP_TOKEN TNT_AUTHORISE: "eyJhbGciOiJFUzI1NksiLCJraWQiOiJkaWQ6ZWJzaTo0MzI0ZjI0NDMyNDMyNCNheFpBT0tiai1ZeU1pSU4yQ1JMQ3dQalNDZ013aEJ3Q1ZOZ0ViT2wzUUpZIiwidHlwIjoiSldUIn0.eyJpc3MiOiJkaWQ6ZWJzaTo0MzI0ZjI0NDMyNDMyNCIsImF1ZCI6ImRpZDplYnNpOnpFOTcxb1Q5ZXN1S2RjSHNwS2RmQVhnIiwic3ViIjoiZGlkOmVic2k6NDMyNGYyNDQzMjQzMjQiLCJpYXQiOjE3NzQ3MjMxOTIsIm5iZiI6MTc3NDcyMzE5MiwiZXhwIjoyMDkwMDgzMTkyLCJub25jZSI6InVybjp1dWlkOjE3MjJkMmE0LTk4NDktNDNmYi05YjJjLTFiODA2MTRmYWE0NSIsImp0aSI6InVybjp1dWlkOjE3MjJkMmE0LTk4NDktNDNmYi05YjJjLTFiODA2MTRmYWE0NSIsInZwIjp7ImNvbnRleHQiOlsiaHR0cHM6Ly93d3cudzMub3JnLzIwMTgvY3JlZGVudGlhbHMvdjEiXSwiaWQiOiJ1cm46dXVpZDoxNzIyZDJhNC05ODQ5LTQzZmItOWIyYy0xYjgwNjE0ZmFhNDUiLCJ0eXBlIjpbIlZlcmlmaWFibGVQcmVzZW50YXRpb24iXSwiaG9sZGVyIjoiZGlkOmVic2k6NDMyNGYyNDQzMjQzMjQiLCJ2ZXJpZmlhYmxlQ3JlZGVudGlhbCI6WyJleUpoYkdjaU9pSkZVekkxTmlJc0ltdHBaQ0k2SW1ScFpEcGxZbk5wT25wRk9UY3hiMVE1WlhOMVMyUmpTSE53UzJSbVFWaG5JM0JxZVdsVWVGQllRVXh0YlVnMEwxcENlR2R2VlZOcFluQjZla3REYm5STldHeDZlVkJIV1hwMWNFa2lMQ0owZVhBaU9pSktWMVFpZlEuZXlKcGMzTWlPaUprYVdRNlpXSnphVHA2UlRrM01XOVVPV1Z6ZFV0a1kwaHpjRXRrWmtGWVp5SXNJbk4xWWlJNkltUnBaRHBsWW5OcE9qUXpNalJtTWpRME16STBNekkwSWl3aWFXRjBJam94TnpjME56SXpNVGd6TENKdVltWWlPakUzTnpRM01qTXhPRE1zSW1WNGNDSTZNakE1TURBNE16RTRNeXdpYW5ScElqb2lkWEp1T25WMWFXUTZPVGN3TWpVMFl6TXRaVGcxTlMwME56UmhMV0ZqWWpjdE56Vm1NR1ExTWpreU9HSTFJaXdpZG1NaU9uc2lZMjl1ZEdWNGRDSTZXeUpvZEhSd2N6b3ZMM2QzZHk1M015NXZjbWN2TWpBeE9DOWpjbVZrWlc1MGFXRnNjeTkyTVNKZExDSnBaQ0k2SW5WeWJqcDFkV2xrT2prM01ESTFOR016TFdVNE5UVXRORGMwWVMxaFkySTNMVGMxWmpCa05USTVNamhpTlNJc0luUjVjR1VpT2xzaVZtVnlhV1pwWVdKc1pVRjFkR2h2Y21sellYUnBiMjVVYjA5dVltOWhjbVFpWFN3aWFYTnpkV0Z1WTJWRVlYUmxJam9pTWpBeU5pMHdNeTB5T0ZReE9Ub3pPVG8wTXk0M056YzNNRE1pTENKMllXeHBaRVp5YjIwaU9pSXlNREkyTFRBekxUSTRWREU1T2pNNU9qUXpMamMzTnpjd015SXNJblpoYkdsa1ZXNTBhV3dpT2lJeU1ETTJMVEF6TFRJMVZERTVPak01T2pRekxqYzNOemN4TVNJc0ltVjRjR2x5WVhScGIyNUVZWFJsSWpvaU1qQXpOaTB3TXkweU5WUXhPVG96T1RvME15NDNOemMzTVRFaUxDSnBjM04xWldRaU9pSXlNREkyTFRBekxUSTRWREU1T2pNNU9qUXpMamMzTnpjd015SXNJbWx6YzNWbGNpSTZJbVJwWkRwbFluTnBPbnBGT1RjeGIxUTVaWE4xUzJSalNITndTMlJtUVZobklpd2lZM0psWkdWdWRHbGhiRk4xWW1wbFkzUWlPbnNpYVdRaU9pSmthV1E2WldKemFUbzBNekkwWmpJME5ETXlORE15TkNKOUxDSmpjbVZrWlc1MGFXRnNVMk5vWlcxaElqcDdJbWxrSWpvaWFIUjBjSE02THk5aGNHa3RjR2xzYjNRdVpXSnphUzVsZFM5MGNuVnpkR1ZrTFhOamFHVnRZWE10Y21WbmFYTjBjbmt2ZGpJdmMyTm9aVzFoY3k4d2VESXpNRE01WlRZek5UWmxZVFppTnpBelkyVTJOekpsTjJObVlXTXdZalF5TnpZMVlqRTFNR1kyTTJSbU56aGxNbUprTVRoaFpUYzROVGM0TjJZMllUSWlMQ0owZVhCbElqb2lSblZzYkVwemIyNVRZMmhsYldGV1lXeHBaR0YwYjNJeU1ESXhJbjE5ZlEuQjV0OUw0bFpETE9yeVVYVWI1MGxoZTJDNkxFS0NTd2duUDBxRXRMUHdtZk9Oal9LeUJ0U290akhYQjVXRHo5ZkZQUFJsVDlmMjZ5TkFaT0NSTmtERWciXX19.kotSNppfrnJ-hRQAB358t-Cqr3hM8_eGvIufLFuV-t7FLIqaFVxqvqZ9CAjUXFTWEp0NutdQRQW_aIyKC4Agdg"

TESTER ACCESS TOKEN TNT_CREATE: eyJhbGciOiJFUzI1NiIsImtpZCI6IlJWVzJva3h6LXp6TnpBRUZLTl9lSWtRaXQ2WERDaUp0N2szaW5WaDlSV1EiLCJ0eXAiOiJKV1QifQ.eyJhdWQiOiJodHRwczovL2FwaS1waWxvdC5lYnNpLmV1L2F1dGhvcmlzYXRpb24vdjQiLCJleHAiOjE3NzQ4MTUyMTAsImlhdCI6MTc3NDgwODAxMCwiaXNzIjoiaHR0cHM6Ly9hcGktcGlsb3QuZWJzaS5ldS9hdXRob3Jpc2F0aW9uL3Y0IiwianRpIjoiOWUzNGZkMWUtNzY5Ny00NDhiLWI1ODMtNTAwNjNiZTBkZWM4Iiwic2NwIjoib3BlbmlkIHRudF9jcmVhdGUiLCJzdWIiOiJkaWQ6ZWJzaTo0MzI0ZjI0NDMyNDMyNCJ9.o93OP1GWutDeiRPAzUXygjzMbEP8RJTJTJ5lxtQee6yp_4Y-EKnfGp2QKtlFaO-fgeUwI9_fU1wpep2aBlRg2A

TESTER ACCESS TOKEN TNT_AUTHORISE: eyJhbGciOiJFUzI1NiIsImtpZCI6IlJWVzJva3h6LXp6TnpBRUZLTl9lSWtRaXQ2WERDaUp0N2szaW5WaDlSV1EiLCJ0eXAiOiJKV1QifQ.eyJhdWQiOiJodHRwczovL2FwaS1waWxvdC5lYnNpLmV1L2F1dGhvcmlzYXRpb24vdjQiLCJleHAiOjE3NzQ3MjY4MjksImlhdCI6MTc3NDcxOTYyOSwiaXNzIjoiaHR0cHM6Ly9hcGktcGlsb3QuZWJzaS5ldS9hdXRob3Jpc2F0aW9uL3Y0IiwianRpIjoiYzVjNGNiZDMtYmMxOC00MTU4LTgzZTMtYzc0OGU4MTg5MzU0Iiwic2NwIjoib3BlbmlkIHRudF9hdXRob3Jpc2UiLCJzdWIiOiJkaWQ6ZWJzaTo0MzI0ZjI0NDMyNDMyNCJ9.5mYcnithkUYWBPdgQ-cOSiUNOazQX-khK25SSo4sde4ZR7tgt7AU6uv1tbleGBKgY0L36VTPDdJIlz4ITOHtBA
TESET ACCESS TOKEN TNT_WRITE: eyJhbGciOiJFUzI1NiIsImtpZCI6IlJWVzJva3h6LXp6TnpBRUZLTl9lSWtRaXQ2WERDaUp0N2szaW5WaDlSV1EiLCJ0eXAiOiJKV1QifQ.eyJhdWQiOiJodHRwczovL2FwaS1waWxvdC5lYnNpLmV1L2F1dGhvcmlzYXRpb24vdjQiLCJleHAiOjE3NzQ3Mjc1NjEsImlhdCI6MTc3NDcyMDM2MSwiaXNzIjoiaHR0cHM6Ly9hcGktcGlsb3QuZWJzaS5ldS9hdXRob3Jpc2F0aW9uL3Y0IiwianRpIjoiYzhhNTU4NzgtNTlkOC00YWZkLWE1YjktMmQ5MjIyM2ZiYmMxIiwic2NwIjoib3BlbmlkIHRudF93cml0ZSIsInN1YiI6ImRpZDplYnNpOjQzMjRmMjQ0MzI0MzI0In0.b3GTMsYhUZfkzYoxVvBds0Ubdsbd6I958tfm70PSrF4GqUd6zBF9VwHx5H8SkzSJCzdqt3m3Hd69M3zUKkoNaw